:020000040040BA
:10000000D02C4020990E4000970E4000970E4000E3
:10001000970E4000970E4000970E40000000000031
:10002000000000000000000000000000711240000D
:10003000970E4000000000001113400079134000AB
:10004000970E4000970E4000970E4000970E40001C
:10005000970E4000970E4000970E4000970E40000C
:10006000970E400000000000D50A4000E90A400059
:10007000FD0A4000970E4000970E4000970E40008A
:10008000110B4000250B4000970E4000970E4000DA
:10009000970E4000970E4000970E4000970E4000CC
:1000A00011374000970E4000970E4000970E400019
:1000B000970E40008D074000970E4000970E4000BD
:1000C000970E4000970E4000970E4000970E40009C
:1000D00000000000970E400000000000970E400056
:1000E000A1074000970E4000970E4000970E400079
:1000F000970E4000970E4000970E4000970E40006C
:10010000970E4000970E4000970E4000970E40005B
:10011000970E4000000000000000000000000000FA
:10012000970E4000970E4000970E4000970E40003B
:10013000970E400000000000970E4000970E400010
:1001400010B5054C237833B9044B13B10448AFF311
:1001500000800123237010BDB8094020000000007A
:10016000849840000C4B43B10C480D4910B5AFF3D7
:1001700000800C48036823B910BD0A48036833B9EE
:100180007047094B002BF7D0BDE810401847064BCD
:10019000002BF5D0184700BF0000000084984000F5
:1001A000BC094020849840000000000010B51048B1
:1001B000104B98473E2100200F4B98470F4CA0470B
:1001C0000028FCD00E4B98470E4A0F4B9A620F4CFA
:1001D000A0470028FCD002200D4B984700200D4B73
:1001E00098470D4B98470248024B984710BD00BFF7
:1001F00000A3E1116D104000D50B4000290C400018
:10020000390C4000013F182000060E40490C400008
:10021000390B4000710B4000610F4000002A54D0A0
:100220002DE9F84F924606460F468A44DFF8B8801B
:10023000274DDFF8B89006E021464046A847002841
:10024000FAD1BA453ED017F8014B4645F4D04E4599
:1002500016D0204B9E4219D01F4B9E421CD01F4BE4
:100260009E421FD01E4B9E4224D01E4B9E42E8D180
:10027000DFF87CB021461B48D8470028FAD1E0E7D8
:1002800021464846A8470028FAD1DAE72146114816
:10029000A8470028FAD1D4E721460F48A8470028EC
:1002A000FAD1CEE7DFF848B021460C48D8470028FD
:1002B000FAD1C6E7DFF838B021460948D847002808
:1002C000FAD1BEE70020BDE8F88F0020704700BFDC
:1002D000570D4000001A0E40001C0E400040024026
:1002E0000080024000C0024000080E40000A0E409C
:1002F000690E40002DE9F04180B90C469046002A75
:100300000FDD8F18084E094D306821462B6898473D
:100310000134BC42F8D14046BDE8F0814FF0FF38CF
:10032000F9E78046F7E700BFD80B4020D00B40200C
:100330000138022815D82DE9F0410E4614469AB12D
:100340000D46DFF838800C4FD8F8000015F8011B77
:100350003B68984700280ADBA81B013CF4D1BDE8A4
:10036000F0814FF0FF3070471046BDE8F0814FF04C
:10037000FF30BDE8F08100BFD40B4020D80B4020F7
:10038000F8B54FF400425C4B5A60BFF34F8FBFF398
:100390006F8F5A4B0022C3F850225A6942F4003240
:1003A0005A61BFF34F8FBFF36F8FD3F88070C7F3DD
:1003B0004E3607F007000430C7F3C907B7FA87FEC7
:1003C0000EF01F0EBFF34F8F4FF0FF3404FA00FC06
:1003D00006FA00F004FA0EF407FA0EFE1D463A463D
:1003E000734640EA0301C5F86012013A2344B2F1B2
:1003F000FF3FF6D1013E6044B6F1FF3FEFD1BFF3BE
:100400004F8F3E4B5A6942F480325A61BFF34F8F8F
:10041000BFF36F8F3A4A3B495160A1F5807151603B
:10042000BFF34F8FBFF36F8FD3F8902222F00102FA
:10043000C3F89022D3F8942222F00102C3F8942248
:10044000BFF34F8FBFF36F8F0A202F4CA0470B20B5
:10045000A0470C20A0471020A0471120A0472B4BFD
:100460004FF480721A61C3F8A0201A63A3F5806369
:100470004FF400625A61C3F8A0205A66C3F8902076
:100480005A651A62C3F88420196F21F40061196754
:10049000596F21F400615967C3F8C020C3F8D42014
:1004A000C3F8B0204FF400121A66C3F890205A65C2
:1004B0005A62C3F88020196F21F400111967596F2F
:1004C00021F4001159675A60114AD2F8143143F0EF
:1004D0001003C2F814310F4B10221A66C3F8902093
:1004E0005A655A62C3F88020196F11431967596F12
:1004F000114359675A60F8BD50180E4000ED00E0F6
:10050000000C0E400C08005A590C400000120E401E
:100510000080084000100E4070B582B0026BC36AC4
:100520001340019300241C4E1C4DA84214BF002010
:10053000012005010BE00E2C1ED8019A04F10C01DC
:1005400001238B40134210D10134102C22D00B2CEC
:10055000F1D8019A0123A3401342F5D02B1956F884
:100560002330002BF0D09847EEE72B1956F82330B4
:10057000002BE9D09847E7E7019A04F10F01012326
:100580008B401342E0D02B1956F82330002BDBD0E0
:100590009847D9E702B070BDDC0B40200040064010
:1005A00030B4046E01238B4024EA03041578002D37
:1005B00008BF002323430366446D4B000321994089
:1005C00024EA0104517899402143416530BC7047C9
:1005D0004B780A78134303678A884B8843EA0243BF
:1005E0004367704700220260084B4360084B8360FA
:1005F0004FF48023C3600223037401234374837484
:10060000C274037543758375704700BF00A3E11181
:10061000808D5B000023037001234370704700232B
:10062000037020234370FF23438040F6FF738380D1
:1006300070470000026B12F0807201D019207047E1
:1006400010B401230360CB7C002B18BF4FF0004295
:100650004B688C68B3FBF4F3013B1B029BB2CC6884
:1006600044F4000423430C7C240604F07064234308
:100670004C7C240704F040542343134343600B7D18
:10068000002B14BF4FF0807300230A6813434A7D88
:10069000002A14BF4FF000720022134383608B7D49
:1006A0001B0203F4407343F00C03C0F894300F4B6B
:1006B000984206D00E4B98420DD000205DF8044BB6
:1006C00070470C4B03F14001002243F8042F8B428A
:1006D000FBD10020F2E7084B03F14001002243F870
:1006E000042B8B42FBD10020E8E700BF00C0034091
:1006F00000400640D80B40201C0C40200C4B994277
:1007000007D00B290BD806D0012303FA01F141626F
:100710007047436270474FF40063436270470E298D
:1007200094BF0C310F31012303FA01F1416270478C
:10073000FF0F004738B5114CA0420CBF1024002415
:100740000C440F4D45F824200AD10E4A4FF4807412
:10075000C2F884415B01DBB282F82833546009E0BF
:10076000084A4FF00054C2F880415B01DBB282F8C6
:100770001D331460044B984738BD00BF004006404D
:10078000DC0B402000E100E0FD06400008B5024817
:10079000024B984708BD00BF00C003401905400048
:1007A00008B50248024B984708BD00BF004006400C
:1007B0001905400000B583B0134B98420CBF2820A8
:1007C0001D20124B9847124B9B78FF2B1AD0EFF34A
:1007D0001083B3FA83F35B09019372B6BFF35F8FA3
:1007E00000220C4B1A700199094A937801339370D7
:1007F00029B10122074B1A70BFF35F8F62B603B0B5
:100800005DF804FBFEE700BF00400640590C4000C5
:10081000C80B402000004020C0F8841053004FF463
:100820000042B2FBF3F2013AC2F30D02C0F88C2091
:100830007047016370474163704721F00061B1F177
:10084000405F05D1836B134214BF01200020704725
:10085000C36BF8E74264B1F1C05F3AD013D8B1F18D
:10086000006F25D0B1F1805F0AD1036F1343036796
:10087000436F416F0B4023EA0203436742607047B6
:100880000029FBD17047B1F1205F21D009D8B1F127
:10089000005FF3D1036F13430367436F1343436751
:1008A000ECE7B1F1405F13D0B1F1605F10D0E5E744
:1008B00010B4016F046FD34321401C4619400167F7
:1008C000436F416F0B402340436742605DF8044B28
:1008D0007047036F016F0B4023EA02030367436F06
:1008E00013434367CAE7416412F0010F0DD101665B
:1008F00012F00A0F0BD0016212F0020F09D112F0B0
:10090000080F08D0C0F8841005E04166F0E74162A6
:10091000F2E7C0F8801041610160704710B4019C9B
:1009200041644CB901664BB101654AB9416301614B
:1009300001605DF8044B70474166F4E74165F4E7F8
:100940000163F4E770B582B0054616461C46B1F166
:10095000005F14D00AD9B1F1405F24D0B1F1605FDB
:1009600021D0B1F1205F17D000201AE0B1F1805FF3
:1009700005D0B1F1C05F02D0B1F1006FF4D13246C1
:100980002846114B984714F0010F02D12E66012022
:1009900007E06E66012004E01A4631460B4B98478B
:1009A000012002B070BD04F001030093C4F3800382
:1009B000B1F1605F14BF0022012231462846044C89
:1009C000A0470120EDE700BF55084000E7084000C0
:1009D0001D09400012F0100F12D0C0F8B01012F034
:1009E000200F07D0C0F8D41012F0400F05D0C0F887
:1009F000C0107047C0F8D010F6E7C0F8C4107047B8
:100A0000C0F8B410704701647047C06C7047806CC8
:100A1000704700002DE9F041044688460E4B984788
:100A2000054620460D4B9847054013D00C4C04F169
:100A3000600603E0B4420DD010345DB1206840453B
:100A4000F8D161682942F5D0E3689847636825EAE0
:100A50000305EFE7BDE8F0810B0A40000F0A4000F4
:100A6000D4094020F8B5184C2668062E2AD84FF035
:100A7000000C6446154F04E00134E4B2A446A642DB
:100A800009D3A64625017D598D42F5D107EB041502
:100A90006D689542F0D10D4D4FEA0E1E05EB0E0428
:100AA00045F80E106260A3600699E1600136664564
:100AB00005D011461A46064B98470020F8BD02495A
:100AC0000E60F6E70120F8BD440A4020D40940201A
:100AD000D509400008B50A210148024B984708BDD6
:100AE000000E0E40150A400008B50B210148024BCC
:100AF000984708BD00100E40150A400008B50C21AB
:100B00000148024B984708BD00120E40150A4000EC
:100B100008B510210148024B984708BD00140E404B
:100B2000150A400008B511210148024B984708BD3D
:100B300000160E40150A4000032811D0042812D0D8
:100B400002280CBF4FF480710021084A136B23F474
:100B500040730B431363936E13F0080FFBD0704781
:100B60004FF44071F1E74FF40071EEE700060E40DC
:100B7000174A136B23F0700318431063936E13F03E
:100B8000080F0AD14FF4805311498A6E12F0080FF2
:100B900003D1013BF9D1012070470D4A136B23F0BB
:100BA000030343F002031363936E13F0080F0AD19B
:100BB0004FF4805306498A6E12F0080F05D1013BAD
:100BC000F9D101207047002070470020704700BF16
:100BD00000060E40A0B90E48036A090289B20D4A08
:100BE0001A400D4B1343194301620246936E13F0F2
:100BF000010FFBD0064A116A084B0B431362704782
:100C000003490B6A064A1A40064B13430B627047AE
:100C100000060E40FCFFC8FF01003700000037014E
:100C2000FCFFC8FE02003701024B986E00F48030D2
:100C3000704700BF00060E404FF00052014B9A6211
:100C4000704700BF00060E40024B986E00F0020095
:100C5000704700BF00060E403F281ED81F280CD842
:100C6000114B9A6901238340934318D0012303FA5F
:100C700000F00D4B18610020704720380A4BD3F864
:100C800008210123834093430BD0012303FA00F092
:100C9000054BC3F800010020704701207047002079
:100CA00070470020704700BF00060E4010B4890155
:100CB0004318022444504FF0FF319962196A5A6078
:100CC0005DF8044B7047890105234350704700EBE2
:100CD0008111CA61704700EB81114A62704700EBD5
:100CE0008111086A7047F0B486B002240194082488
:100CF000029420240394802404940A9CE40B059419
:100D0000B0EB510F14D84C0CA04217D2012501AF03
:100D100057F82540B1FBF4F4260C84420AD38642EE
:100D20000DD90135052DF3D1002006B0F0BC704778
:100D30000020FAE70020F8E70120F6E700252AB1B5
:100D400006A901EB850151F8141C1160002BF3D0AA
:100D50001D600120E9E7436913F0020F02D0C16171
:100D60000020704701207047436913F0010F03D042
:100D700083690B70002070470120704710B40B018D
:100D8000934214D9C9004B0803EBC202B2FBF1F243
:100D9000D3085C1E4FF6FE718C4201D9012017E08A
:100DA000416841F4002141600CE0012010E0590845
:100DB00001EBC202B2FBF3F2D3085C1E4FF6FE71E8
:100DC0008C42F2D8120402F4E0221A43026200209C
:100DD0005DF8044B70470000084BC0F8E430002376
:100DE00043604362836288230360242303604FF4DB
:100DF000807303604FF40023036070470041535534
:100E000070B505460C4616460F4B984700220F4B0F
:100E10001A60A4B13246216828460D4B9847024615
:100E200078B96368A1680B4321690B43E1680B4300
:100E300006490B6069680B436B60104670BD012268
:100E4000FBE70122F9E700BFD90D4000480A402026
:100E50007D0D4000402303607047102303607047FE
:100E60004069C0F340007047436913F0020F04D09B
:100E7000C1F30801C1610020704701207047436938
:100E800013F0010F05D08369C3F308030B60002042
:100E9000704701207047FEE700B583B0254B264A16
:100EA0009A4210D0254B234A9A420CD2013B9B1AFE
:100EB00023F00303043313441F4951F8040B42F891
:100EC000040B9A42F9D11E4B1E4A9A420AD2013BA8
:100ED0009B1A23F0030304331344002142F8041B3C
:100EE0009342FBD1184A194B23F07F039360EFF331
:100EF0001083B3FA83F35B09019372B6BFF35F8F7C
:100F00000022134B1A700199124A136843F47003BC
:100F10001360BFF34F8FBFF36F8F29B101220C4BCA
:100F20001A70BFF35F8F62B60B4B98470B4B984715
:100F3000FEE700BF0000402084984000B809402030
:100F4000CC0C4020B809402000ED00E0000040003B
:100F50000000402088ED00E0AD3C40006D3B4000CB
:100F60003B4B1B6B03F00303012B1DD083B1022B02
:100F700036D0374B1B6B03F07003702B5FD0344BB4
:100F80001A6B3449C2F302120B68D3400B607047EE
:100F9000314B5B6913F0800F14BF4FF400424FF4E4
:100FA000FA422C4B1A60E4E7294B1B6A13F0807F4E
:100FB00003D02A4A274B1A60DBE7294A254B1A60DF
:100FC000234B1B6A03F07003102B05D0202BD0D1CC
:100FD000224A204B1A60CCE7224A1E4B1A60C8E70F
:100FE0001B4B1B6A13F0807F16D01C4A194B1A60EA
:100FF000174B1B6B03F00303022BBAD1144A916AFF
:10100000926A1448C1F30A41036801FB0333D2B268
:10101000B3FBF2F30360ACE7114A0E4B1A600C4BC2
:101020001B6A03F07003102B05D0202BE0D10B4A74
:10103000084B1A60DCE70B4A064B1A60D8E7054AF2
:1010400013680949A1FB03135B081360704700BFD5
:1010500000060E400400402010180E40001BB70090
:1010600000093D0000127A00ABAAAAAA164B9842CA
:1010700013D9164B984215D9154B984216D9154BD2
:10108000984217D9144B984218D9144B984294BFE0
:10109000134A144A144B1A6070474FF08062124B87
:1010A0001A607047114A104B1A607047104A0E4B75
:1010B0001A6070470F4A0C4B1A6070474FF00422B9
:1010C000094B1A60704700BFBFF35E017FE7BD02A6
:1010D0003FDB1C04FFCE7B05BFC2DA067FB63908B2
:1010E0000005000400060004000C0E40000100048E
:1010F00000020004000300040A4B1B6853B1094BB3
:101100001B681A180849914208DB1046054A10600E
:1011100018467047054A034B1A60F0E74FF0FF305E
:10112000704700BF4C0A4020FCFF4520D02E4020D5
:101130004FF0FF3070474FF400534B600020704772
:10114000012070470020704700F1080343604FF012
:10115000FF328260C3600361002303607047002395
:101160000361704743684B609A688A609A6851606F
:1011700099600861036801330360704730B40D68FB
:10118000B5F1FF3F02D000F1080202E0026904E07D
:101190001A4653681C68A542FAD253684B6099609E
:1011A0008A605160086103680133036030BC704796
:1011B00003694268816891608268416851605A6839
:1011C000904205D00022026118680138186070470B
:1011D00082685A60F6E700000D4B1B68B3F1FF3FD1
:1011E0000AD04FF0800372B683F31188BFF36F8F7C
:1011F000BFF34F8F62B6FEE74FF0800372B683F302
:101200001188BFF36F8FBFF34F8F62B6FEE700BF49
:101210000800402006480068006880F3088862B62D
:1012200061B6BFF34F8FBFF36F8F00DF00BF0000C9
:1012300008ED00E0DFF80C00016841F47001016086
:101240007047000088ED00E04FF0807340F8043CE8
:1012500040F8081C054B40F80C3C40F8202C6FF07F
:10126000020340F8243C4438704700BFD9114000C5
:10127000064B19680868B0E8F04F80F30988BFF39F
:101280006F8F4FF0000080F311887047580A40209C
:10129000704700BF4FF0800372B683F31188BFF32D
:1012A0006F8FBFF34F8F62B60B4A13680133136021
:1012B000012B0FD1094B1B6813F0FF0F0AD04FF021
:1012C000800372B683F31188BFF36F8FBFF34F8F24
:1012D00062B6FEE7704700BF0800402004ED00E062
:1012E0000A4B1B6853B94FF0800372B683F3118821
:1012F000BFF36F8FBFF34F8F62B6FEE7013B034A28
:1013000013600BB983F31188704700BF08004020B9
:10131000EFF30980BFF36F8F154B1A681EF0100FA3
:1013200008BF20ED108A20E9F04F10604DF8043D11
:101330004FF0800072B680F31188BFF34F8FBFF378
:101340006F8F62B601F08EF84FF0000080F31188C5
:1013500008BC19680868B0E8F04F1EF0100F08BF0D
:10136000B0EC108A80F30988BFF36F8F704700BF1D
:10137000580A4020704700BF08B5EFF311834FF0C3
:10138000800272B682F31188BFF36F8FBFF34F8F65
:1013900062B6054B984718B14FF08052034B1A6064
:1013A000002383F3118808BDD120400004ED00E044
:1013B000034A044B1A600722043B1A60704700BFBF
:1013C000BF27090014E000E000B583B0254B1A7870
:1013D000D2B20192FF221A701B78DBB28DF8033073
:1013E0009DF8033003F080031F4A137007221F4B40
:1013F0001A609DF8033013F0800F10D0062200E031
:101400000A469DF803305B00DBB28DF803309DF88F
:101410000330511E13F0800FF2D1144B1A60134A9F
:1014200013681B0203F4E0631360019BDBB20D4AF7
:1014300013700F4B1A6842F460021A601A6842F087
:1014400060421A600B4B984700220B4B1A600B4B03
:1014500098470B4A136843F040431360094B984781
:10146000094B984700E400E0500A4020540A40200D
:1014700020ED00E0B113400008004020351240008C
:1014800034EF00E015124000D9114000EFF305835E
:101490000F2B11D9124A9B5CDBB2124A12789A4286
:1014A0000AD94FF0800372B683F31188BFF36F8FB0
:1014B000BFF34F8F62B6FEE70B4B1B6803F4E0638C
:1014C0000A4A126893420AD94FF0800372B683F336
:1014D0001188BFF36F8FBFF34F8F62B6FEE770477F
:1014E000F0E300E0500A40200CED00E0540A4020F8
:1014F00010B50446064B98472046064B98470446CD
:10150000054B98470CB1204610BD044B9847FAE7AD
:10151000B5204000FD3C40001D2240002333400028
:1015200048B110B50446044B98472046034B9847F2
:10153000034B984710BD7047B52040000D3D40005B
:101540001D22400038B504461546026C5AB903689E
:10155000002B2ED140681B4B984700236360A36B80
:101560000133A36338BD6DB98068174B9847A368F2
:10157000226C1344A360626893421CD32368A36067
:101580000020ECE7C068104B9847236C5B42E26890
:101590001A44E26021688A4202D262681344E3601E
:1015A000022D0AD1A36B53B1A36B013BA3630020AF
:1015B000D5E70020D3E70020D1E70020CFE70020C7
:1015C000CDE700BF652840007D42400030B583B0C4
:1015D0000190446D74B1A26BE36B9A4215D34FF046
:1015E000800372B683F31188BFF36F8FBFF34F8F01
:1015F00062B6FEE74FF0800372B683F31188BFF343
:101600006F8FBFF34F8F62B6FEE7A26B934203D892
:101610000025284603B030BD0A4601A920460B4BE1
:1016200098470546A36CB3F1FF3F0AD1636A002BCC
:10163000EFD004F12400064B9847002818BF01257D
:10164000E7E7A36C0133A364E3E700BF451540005F
:1016500039264000026C72B110B50346C4681444C8
:10166000C4604068844201D31868D8600846D968CD
:10167000014B984710BD70477D424000F8B50446C5
:10168000224B9847A36C002B1BDD214D214F224E8E
:101690000BE0636AABB104F12400B04778B9A36CE6
:1016A000013BA364A36C002B0BDD636D002BF0D01A
:1016B00000212046A8470128F1D1B847EFE7B847F5
:1016C000EDE74FF0FF33A364144B98470F4B984757
:1016D000636C002B14DD236993B104F110060E4DE9
:1016E0000C4F07E0636C013B6364636C002B07DD08
:1016F00023692BB13046A8470028F3D0B847F1E75B
:101700004FF0FF336364054B9847F8BD95124000D6
:10171000CD1540009527400039264000E1124000D9
:1017200038B508B304460D461D4B98472268216C16
:10173000E36B03FB01F3D01860600020A063A2609C
:101740005B1A1344E3604FF0FF336364A364FDB995
:1017500023692BB104F11000124B984701280ED0D9
:10176000114B9847012038BD4FF0800372B683F3C8
:101770001188BFF36F8FBFF34F8F62B6FEE74FF054
:1017800080520A4B1A60BFF34F8FBFF36F8FE7E7AA
:1017900004F11000064DA84704F12400A847DFE734
:1017A0009512400039264000E112400004ED00E0AF
:1017B00049114000F8B550B94FF0800372B683F379
:1017C0001188BFF36F8FBFF34F8F62B6FEE70646F7
:1017D00017460D4689B101FB00F05930124B98476E
:1017E0000446E8B94FF0800372B683F31188BFF363
:1017F0006F8FBFF34F8F62B6FEE758200A4B9847B2
:1018000004460028EED02060E663256401212046CE
:10181000064B984784F85070002363652046F8BD56
:1018200000F158030360EFE7F11440002117400076
:101830002DE9F04F85B00192B8B1044601B3022BF7
:101840002CD01D468846664B9847002834D1019B12
:10185000002B38D04FF0800372B683F31188BFF3AA
:101860006F8FBFF34F8F62B6FEE74FF0800372B603
:1018700083F31188BFF36F8FBFF34F8F62B6FEE71C
:10188000026C002ADBD04FF0800372B683F311881C
:10189000BFF36F8FBFF34F8F62B6FEE7E26B012A93
:1018A000CFD04FF0800372B683F31188BFF36F8FF0
:1018B000BFF34F8F62B6FEE700274A4EDFF850A114
:1018C000DFF82C9142E00027F7E72A464146204600
:1018D000454B9847636D9BB129462046434B98473B
:1018E000012807D14FF08052414B1A60BFF34F8F50
:1018F000BFF36F8F3F4B9847012005B0BDE8F08FD5
:10190000636A73B104F124003B4B98470128F1D17D
:101910004FF08052364B1A60BFF34F8FBFF36F8F7B
:10192000E8E70028E6D04FF08052314B1A60BFF351
:101930004F8FBFF36F8FDDE72E4B98470020DCE71A
:1019400020462E4B98472E4B98470127B047A26B55
:10195000E36B9A42B9D3022DB7D0019B002BEBD099
:101960000FB902A8D047234B9847264B9847B0475A
:10197000636CB3F1FF3F01D100236364A36CB3F147
:10198000FF3F01D10023A3641A4B984701A902A885
:101990001D4B9847E0B9B047D4F838B0E76B154B0A
:1019A0009847BB45CCD1019904F11000174B9847DB
:1019B0002046124B9847124B98470028C5D14FF04C
:1019C0008053C9F80030BFF34F8FBFF36F8FBCE770
:1019D00020460A4B98470A4B984700208DE700BFE6
:1019E000A12740009512400045154000CD1540004C
:1019F00004ED00E0E1124000392640007D16400071
:101A00001D224000B5204000012740003525400040
:101A1000D1264000002836D02DE9F04104460029A7
:101A20003CD0022B48D01E4615468846354B984779
:101A3000EFF311874FF0800372B683F31188BFF381
:101A40006F8FBFF34F8F62B6A26BE36B9A4201D3E5
:101A5000022E4FD13246414620462B4B9847A36C6D
:101A6000B3F1FF3F41D1636D002B33D031462046A7
:101A7000264B9847002D3FD001283DD1286087F3A1
:101A80001188BDE8F0814FF0800372B683F31188AE
:101A9000BFF36F8FBFF34F8F62B6FEE7006C002875
:101AA000BFD04FF0800372B683F31188BFF36F8FFE
:101AB000BFF34F8F62B6FEE7E06B0128B3D04FF063
:101AC000800372B683F31188BFF36F8FBFF34F8F1C
:101AD00062B6FEE7636A8BB104F124000C4B9847B1
:101AE00075B168B101202860C9E7A36C0133A36414
:101AF0000120C4E70020C2E70120C0E70120BEE7C3
:101B00000120BCE78D14400045154000CD15400074
:101B1000392640002DE9F04784B0019298B104467F
:101B2000E1B198460F46614B984728BB019B53B3E0
:101B30004FF0800372B683F31188BFF36F8FBFF34A
:101B40004F8F62B6FEE74FF0800372B683F31188C1
:101B5000BFF36F8FBFF34F8F62B6FEE7026C002AB0
:101B6000DFD04FF0800372B683F31188BFF36F8F1D
:101B7000BFF34F8F62B6FEE700264D4DDFF860A140
:101B8000DFF83C914BE00026F7E7E5683946204650
:101B9000484B9847B8F1000F1DD1A36B013BA363DD
:101BA000236813B9444B9847606023696BB104F113
:101BB0001000424B9847012807D14FF08052404B0C
:101BC0001A60BFF34F8FBFF36F8F3E4B98470120D2
:101BD00004B0BDE8F087E560636A002BF5D004F13E
:101BE0002400364B98470028EFD04FF08052344BFA
:101BF0001A60BFF34F8FBFF36F8FE6E7314B984703
:101C00000020E5E7A84760682F4B98472D4B984781
:101C100030E020462D4B98472D4B98470126A8478A
:101C2000A36B002BB1D1019B002BE7D00EB902A80A
:101C3000D047244B9847274B9847A847636CB3F18C
:101C4000FF3F01D100236364A36CB3F1FF3F01D1D7
:101C50000023A3641B4B984701A902A81E4B984779
:101C6000E8B9A847A66B174B9847002ED1D1236837
:101C7000002BC7D0019904F12400184B9847204647
:101C8000124B9847124B98470028C7D14FF080530A
:101C9000C9F80030BFF34F8FBFF36F8FBEE7204608
:101CA0000A4B98470A4B9847002091E7A12740002C
:101CB0009512400055164000212940003926400069
:101CC00004ED00E0E1124000C12740007D16400015
:101CD0001D224000B520400001274000352540006E
:101CE000D126400010B40B4B1B6853B10123094CA3
:101CF00054F8332032B10133082BF9D15DF8044B8D
:101D000070470023034A42F8331002EBC3035860C4
:101D1000F4E700BF5C0C402070B504460D46164643
:101D20000F4B9847636CB3F1FF3F0BD0A36CB3F13B
:101D3000FF3F0AD00B4B9847A36B4BB120460A4B91
:101D4000984770BD00236364F0E70023A364F1E7C4
:101D50003246294604F12400044B9847EEE700BFC1
:101D600095124000E11240007D164000B925400068
:101D7000084B1B681B683BB1064B1B68DB68DB68C4
:101D80005A68054B1A6070474FF0FF32024B1A60D9
:101D9000704700BF5C0A4020080B402010B50F4B75
:101DA0001B6858600E4B1B6898420ED304460D4BBF
:101DB00018680A4B196804310B4B98470B4B1B688A
:101DC0009C4201D2094B1C6010BD094B1868034BA3
:101DD00019680431044B984710BD00BF580A4020D1
:101DE000500B40205C0A40207D114000080B402031
:101DF000600A40202DE9F04F83B00C9DDDF834A03F
:101E00000E9E60B1042D15D94FF0800372B683F396
:101E10001188BFF36F8FBFF34F8F62B6FEE74FF0AD
:101E2000800372B683F31188BFF36F8FBFF34F8FB8
:101E300062B6FEE70190984691460F4636B990008B
:101E4000624B98470646002800F09E8058205F4B62
:101E500098470446002800F0948006634FEA890200
:101E6000A52130465A4B98476FF040464E44236BAD
:101E700003EB860323F007063B7884F834303B7885
:101E8000002B40F08480002784F83D70E562A56453
:101E9000E76404F104094846DFF884B1D84704F147
:101EA0001800D8472461C5F10503A3616462276562
:101EB00084F85470424601993046464B984720605A
:101EC000BAF1000F01D0CAF80040434B9847434A8B
:101ED000136801331360424B1B68002B66D1404BE3
:101EE0001C601368012B21D13E4F38463E4EB0474F
:101EF00007F11400B04707F12800B04707F13C0094
:101F0000B04707F15000B047DFF818814046B047AE
:101F1000364F3846B0473648B0473648B04736485F
:101F2000B047364BC3F80080354B1F60354A136805
:101F3000013313602364E06A334A1168012383404C
:101F40000B43136000EB80004946264B03EB8000F7
:101F50002E4B98472E4B98472E4B1B68002B31D0A9
:101F60001F4B1B68DB6A9D422ED94FF080522A4BD3
:101F70001A60BFF34F8FBFF36F8F012003B0BDE82E
:101F8000F08F3046254B98474FF0FF30F6E73B4641
:101F900004F134020937597802F8011F13F8011FC0
:101FA00000293FF470AFBB42F5D16CE7194B1B68B9
:101FB000002BBBD10A4B1B68DB6A9D42B6D3084B92
:101FC0001C60B3E70120D9E70120D7E7F1144000F6
:101FD000B14340004912400095124000C80A402019
:101FE000580A4020640A402049114000F40A402069
:101FF000100B40203C0B4020280B40205C0A402066
:10200000600A4020D40A4020DC0A402065114000CC
:10201000E1124000240B402004ED00E021154000B7
:102020005F114000E00A402010B584B00023039304
:10203000029301930093822216491748174CA04738
:1020400001280BD020BB4FF0800372B683F31188B8
:10205000BFF36F8FBFF34F8F62B6FEE7104B984709
:102060000128EFD14FF0800372B683F31188BFF3DC
:102070006F8FBFF34F8F62B64FF0FF32094B1A607C
:102080000122094B1A600022084B1A60084B98473E
:1020900004B010BDC0944000CD234000F51D4000A9
:1020A0000D2A4000080B4020240B4020500B4020FC
:1020B000C9134000024A136801331360704700BF20
:1020C000D00A4020014B1868704700BF500B4020D9
:1020D0002DE9F047424B1B68002B78D1414B1A6821
:1020E00001321A601E68D6B93F4B1B681B6853B19A
:1020F0004FF0800372B683F31188BFF36F8FBFF385
:102100004F8F62B6FEE7384A1168384B1868106086
:102110001960374A136801331360364B9847364BC2
:102120001B689E4218D20024344B1B68DB6A03EB09
:102130008303334A52F82330022B28BF0124314B4A
:102140001B680BB9304B9847304B1B68002B0CBFFA
:1021500020460120BDE8F0870024DFF88C90DFF8EE
:10216000B8802B4F1FE04FF0FF32234B1A60DBE7A4
:10217000214A1360D8E705F11800C047E86A3A68B9
:102180000123834013433B6000EB800051461C4B0E
:1021900003EB80001F4B9847184B1B68EA6ADB6A09
:1021A0009A4228BF0124D9F800301B68002BDAD0EE
:1021B000D9F80030DB68DD686B689E42D8D305F142
:1021C000040A5046C047AB6A002BD4D1D6E70D4A6B
:1021D0001368013313600C4B98470024B4E700BF29
:1021E000D00A4020500B40205C0A4020600A40206A
:1021F0000C0B4020711D4000080B4020580A402065
:10220000640A4020CC0A402021334000540B402077
:10221000DC0A402065114000B11140002DE9F8436F
:10222000384B1B6853B94FF0800372B683F31188A3
:10223000BFF36F8FBFF34F8F62B6FEE7324B984705
:10224000304B1A68013A1A601B68002B55D12F4B8E
:102250001B68002B32D100242D4B98472046BDE847
:10226000F883FB68DC6804F11800B04704F1040847
:102270004046B047E06A2A680123834013432B603D
:1022800000EB8000414609EB8000224B9847224B2F
:102290001B68E26ADB6A9A420CD23B68002BE0D1F1
:1022A0001E4B1B68DBB11D4B1B68C3B11C4E1D4D83
:1022B0001A4C0EE001221B4B1A60EEE71A4F1B4E20
:1022C0001B4DDFF87490E8E72368013B2360236827
:1022D0002BB1B0470028F7D001232B60F4E7114B56
:1022E0001B68012B0BD14FF08052124B1A60BFF3C9
:1022F0004F8FBFF36F8F0124AEE70024ACE70024BB
:10230000AAE700BFD00A402095124000C80A40202A
:10231000E112400065114000580A4020CC0A4020DC
:10232000D1204000540B4020100B4020B111400040
:10233000DC0A402004ED00E0640A402010B50028CB
:1023400029D00446184B1B6853B14FF0800372B676
:1023500083F31188BFF36F8FBFF34F8F62B6FEE731
:10236000124B9847124B1B681C44124B18680430E0
:10237000114B984748B90F4B1A6810490B68D06A3F
:102380000122824023EA02030B6020460C4B98474F
:102390000C4B984738B94FF080520B4B1A60BFF383
:1023A0004F8FBFF36F8F10BDD00A4020B520400083
:1023B000500B4020580A4020B1114000DC0A402058
:1023C0009D1D40001D22400004ED00E080B5DFF8B7
:1023D0008880194EDFF884902AE0184B1B68012B87
:1023E0001ED82B68002BF8D0C0473468B847002CA3
:1023F000F7D0134B9847F368DC68201D114B9847C2
:10240000114A1368013B13602B68013B2B600F4B93
:102410009847206BDFF848A0D0472046D047E0E738
:102420004FF08053C9F80030BFF34F8FBFF36F8F69
:10243000074D084FD5E700BF3C0B4020640A402001
:1024400095124000B1114000C80A4020E11240003E
:10245000D80A40201D224000B520400004ED00E0D5
:10246000211540002D4B1B68002B2CD110B50022EC
:102470002B4B1A602B4B1B681B6B1A68B2F1A53FE4
:1024800003D15A68B2F1A53F21D0264B18681968CC
:102490003431254B9847254B1B68B3FA83F3DBB2E5
:1024A000C3F11F0303EB8301214A52F82120BAB97B
:1024B0004FF0800372B683F31188BFF36F8FBFF3C1
:1024C0004F8F62B6FEE70122154B1A6070479A687B
:1024D000B2F1A53FD9D1DB68B3F1A53FD5D1DAE799
:1024E000134A9900C81802EB80004468646844608D
:1024F000194402460832944209D003EB83030C4A84
:1025000002EB83035B68DA68064B1A6010BD6068F3
:10251000074A02EB81025060EFE700BFD00A40207B
:10252000540B4020580A402009334000DC0A402068
:10253000640A402038B5E0B10C46174D29681831BF
:10254000164B984728680430154B984740B92A68BD
:1025500014490B68D06A0122824023EA02030B600F
:10256000B4F1FF3F10D0104B186820440F4B984730
:1025700038BD4FF0800372B683F31188BFF36F8FBD
:10258000BFF34F8F62B6FEE7034B1968043108486A
:10259000084B984738BD00BF580A40207D114000C5
:1025A000B1114000DC0A4020500B40209D1D40002E
:1025B000280B402065114000E8B170B515460C4667
:1025C000164E31681831164B984730680430154B59
:1025D000984740B9326814490B68D06A012282409A
:1025E00023EA02030B60012D10D0104B1868204421
:1025F0000F4B984770BD4FF0800372B683F311887C
:10260000BFF36F8FBFF34F8F62B6FEE7034B1968BE
:1026100004310848024B984770BD00BF580A40205B
:1026200065114000B1114000DC0A4020500B4020F1
:102630009D1D4000280B402038B5C368DC6824B3DA
:1026400004F1180528461A4B98471A4B1B683BBBE8
:10265000251D2846164B9847E06A174A1168012342
:1026600083400B43136000EB80002946134B03EBC0
:102670008000134B9847134B1B68E26ADB6A9A424F
:1026800013D90120104B186038BD4FF0800372B68B
:1026900083F31188BFF36F8FBFF34F8F62B6FEE7EE
:1026A00029460A48064B9847E5E7002038BD00BF99
:1026B000B1114000D00A4020DC0A4020640A4020CA
:1026C00065114000580A4020540B4020100B402058
:1026D00030B1094A12680260084A126842607047C5
:1026E0004FF0800372B683F31188BFF36F8FBFF38F
:1026F0004F8F62B6FEE700BF0C0B4020500B40200E
:1027000038B5C0B1044609B30D461D4B98471D4B63
:102710001A682B68B3F1FF3F2ED01B490968206867
:10272000884202D061688A4228D26168501A834286
:1027300017D801241CE04FF0800372B683F3118890
:10274000BFF36F8FBFF34F8F62B6FEE74FF080038A
:1027500072B683F31188BFF36F8FBFF34F8F62B6EA
:10276000FEE79B1A0B442B602046084B9847002439
:10277000074B9847204638BD0024F9E70124F7E7C6
:1027800095124000500B40200C0B4020D1264000F9
:10279000E11240000122014B1A607047540B4020A7
:1027A000054B1B6833B1054B1B68002B0CBF022087
:1027B0000020704701207047240B4020D00A4020A1
:1027C000002844D038B50446C26A21490968C96A5C
:1027D0008A4214D28169002905DB1D490968C96A4A
:1027E000C1F10501816102EB82021A4901EB82020B
:1027F0006169914204D0164A1268D26AE26238BD19
:10280000251D2846144B984770B9E36A03EB8301F2
:10281000104A52F821203AB910480268012101FA01
:1028200003F322EA03030360094B1B68D86AE062E2
:102830000A4A1168012383400B43136000EB8000B8
:102840002946044B03EB8000054B984738BD704781
:10285000580A4020640A4020B1114000DC0A4020A0
:102860006511400000284DD038B50446274A12684B
:1028700090420AD04FF0800372B683F31188BFF301
:102880006F8FBFF34F8F62B6FEE7C26C52B94FF045
:10289000800372B683F31188BFF36F8FBFF34F8F3E
:1028A00062B6FEE7013AC264C06AA16C88422BD0CE
:1028B00052BB251D2846164B984768B9E16A01EBC3
:1028C0008102144B53F8223033B9134803680122B4
:1028D0008A4023EA02030360A06CE062C0F10503B2
:1028E000A3610D4A1168012404FA00F30B4313603D
:1028F00000EB80002946074B03EB8000074B98470D
:10290000204638BD00207047002038BD580A4020BE
:10291000B1114000640A4020DC0A402065114000EB
:10292000054B1B6823B1044B1A68D36C0133D36485
:10293000014B1868704700BF580A402008B5416035
:10294000006191420CD8D21A83699A4201D30120C6
:1029500008BD011D094B1868094B9847002008BDA8
:102960009A4203D2994201D3012008BD011D054BB3
:102970001868034B9847002008BD00BF5C0B40203F
:102980007D114000580B402070B5154B9847154BF2
:102990001B6813B1144B984770BD144D2846144E54
:1029A000B047144C2046B047134B1D60134B1C60BE
:1029B000002210210520124B98470A4B186018B1CD
:1029C0001049114B9847E5E74FF0800372B683F347
:1029D0001188BFF36F8FBFF34F8F62B6FEE700BF62
:1029E000951240008C0B4020E1124000600B40200B
:1029F00049114000740B4020580B40205C0B4020D4
:102A0000B5174000C8944000E51C400010B584B0E4
:102A10000F4B98470F4B1B6873B10023039302932E
:102A20000193042200924FF482720B490B480C4C24
:102A3000A04708B104B010BD4FF0800372B683F315
:102A40001188BFF36F8FBFF34F8F62B6FEE700BFF1
:102A5000892940008C0B4020D09440008D2B4000F1
:102A6000F51D4000D8B130B585B015460446154A6D
:102A7000106820B31A46009101950294052919DCCB
:102A8000114B984702284FF000030CBF089A1A46D2
:102A900069460C4800680D4CA04705B030BD4FF0AA
:102AA000800372B683F31188BFF36F8FBFF34F8F2C
:102AB00062B6FEE700236946054CA047EDE700201B
:102AC000EBE700BF8C0B4020A127400031184000ED
:102AD000151A40002DE9F04782B08046244B9847F4
:102AE0000746244B1B6898421BD30023C8F80030CC
:102AF000204B1F60384602B0BDE8F08700210091EE
:102B00000B46524620461C4CA04760B94FF080034C
:102B100072B683F31188BFF36F8FBFF34F8F62B626
:102B2000FEE7164D164E2B681A68C2B1DB68D3F863
:102B300000A0DC6804F104094846B047636A2046F7
:102B40009847E369012BEED1A36953449A45D5D246
:102B500063602461494628680A4B9847E3E70A4ABC
:102B600010680649086013600123C8F80030BFE709
:102B7000C5204000880B4020652A4000580B4020AB
:102B8000B11140007D1140005C0B40202DE9F04761
:102B900088B0754E754FDFF8FC91DFF8FC81336823
:102BA0001A68002A00F0CE80DB681C68B84704A8C9
:102BB0006F4B98470546049B002B44D1A04212D28C
:102BC0000022611B6B4B18686B4B98476B4B984707
:102BD00000283AD14FF08053C9F80030BFF34F8F2F
:102BE000BFF36F8F31E0654B98473368DB68D3F8EC
:102BF0000CA00AF10400C047DAF81C30012B04D005
:102C0000DAF82430504698471FE0DAF818102346C7
:102C10002A46214450465A4DA8470128F0D10021A8
:102C200000910B4622465046564CA0470028E7D15B
:102C30004FF0800372B683F31188BFF36F8FBFF339
:102C40004F8F62B6FEE74D4B98474A4D4E4C06E01B
:102C500007990698059B9847049B002B09DA0023E7
:102C60001A4604A92868A047002898D0049B002B86
:102C7000EEDBDDF818A0DAF8143013B10AF1040025
:102C8000C04703A83A4B9847049B092BE7D801A2F9
:102C900052F823F0BD2C4000BD2C4000BD2C40005C
:102CA0005F2C4000112D40003D2D4000BD2C400008
:102CB000BD2C40005F2C4000112D4000059CDAF82F
:102CC000181023460246214450462D4CA0470128A7
:102CD000BCD1DAF8243050469847DAF81C30012B82
:102CE000B4D1DAF81820002100910B46059802446F
:102CF0005046244CA0470028A8D14FF0800372B65C
:102D000083F31188BFF36F8FBFF34F8F62B6FEE777
:102D10000599CAF8181031B10346024601445046DD
:102D2000174CA04792E74FF0800372B683F31188E7
:102D3000BFF36F8FBFF34F8F62B6FEE75046134B62
:102D4000984783E7B84704A8094B98470546049B72
:102D5000002B7FF478AF0E4B1B681A68B2FA82F230
:102D6000520900242DE700BF580B4020B520400039
:102D7000D52A40008C0B4020191D40001D22400028
:102D80003D294000652A4000151B400021154000E8
:102D90005C0B402004ED00E0B111400010B582B0A2
:102DA0004FF480124FF020510F48104B984798B1C4
:102DB0004FF400510E480F4B984700238DF8053013
:102DC00002A9412301F8043D00231A460A4800687D
:102DD0000A4CA04702B010BD4FF400510448084B04
:102DE00098470123EAE700BF00140E403B0840006B
:102DF00000120E40370840009C0C4020151A40007D
:102E00003308400010B582B04FF400124FF020514B
:102E10000F48104B984798B14FF080410C480E4B2B
:102E2000984700238DF8053002A9422301F8043D9C
:102E300000231A4609480068094CA04702B010BD9B
:102E40004FF080410248074B98470123EAE700BF53
:102E500000140E403B084000370840009C0C402006
:102E6000151A40003308400010B582B04FF48002BC
:102E70004FF020510F48104B984798B14FF4006124
:102E80000C480E4B984700238DF8053002A94323C8
:102E900001F8043D00231A4609480068094CA04780
:102EA00002B010BD4FF400610248074B9847012360
:102EB000EAE700BF00140E403B084000370840001E
:102EC0009C0C4020151A40003308400010B582B019
:102ED0004FF000724FF020510E480F4B984790B1C1
:102EE00040210E480E4B984700238DF8053002A96B
:102EF000442301F8043D00231A460A4800680A4C9E
:102F0000A04702B010BD40210448084B9847012358
:102F1000EBE700BF00140E403B084000000E0E40DF
:102F2000370840009C0C4020151A40003308400030
:102F300010B582B04FF080624FF020511848194B05
:102F40009847B0B9184B1B78ABB14FF40021174824
:102F5000174B98470022144B1A7001238DF8053047
:102F600002A9452301F8043D134612480068124C9B
:102F7000A04702B010BD4FF400210C480F4B9847FA
:102F80000122094B1A7000228DF8052002A9452361
:102F900001F8043D134607480068074CA047E8E7DE
:102FA00000140E403B084000900B402000120E40E1
:102FB000330840009C0C4020151A400037084000A0
:102FC00010B584B0094B08225A669B6E02937A238F
:102FD0008DF80C3004AA012342F80C3D002302A90D
:102FE00003480068034CA04704B010BD00C0034074
:102FF000A00C4020151A400010B584B0094B0622E1
:103000005A669B6E029369238DF80C3004AA012343
:1030100042F80C3D002302A903480068034CA04776
:1030200004B010BD00400640A00C4020151A40001E
:1030300010B584B0094B05225A669B6E0293792322
:103040008DF80C3004AA012342F80C3D002302A99C
:1030500003480068034CA04704B010BD00C0034003
:10306000A00C4020151A400010B584B0094B052271
:103070005A669B6E029368238DF80C3004AA0123D4
:1030800042F80C3D002302A903480068034CA04706
:1030900004B010BD00400640A00C4020151A4000AE
:1030A00070B50C462A4B984213D02A4B984219D03F
:1030B000294B98421FD0294B984225D0284B984243
:1030C0002BD0284B984231D0274B984237D0002044
:1030D00070BD1E46254D21463046A8470028FAD12E
:1030E000012070BD1E46214D21463046A8470028CC
:1030F000FAD1012070BD1E461C4D21463046A8471E
:103100000028FAD1012070BD1E46184D21463046D8
:10311000A8470028FAD1012070BD1E46144D214653
:103120003046A8470028FAD1012070BD1E46104D38
:1031300021463046A8470028FAD1012070BD1E461E
:103140000B4D21463046A8470028FAD1012070BD1A
:1031500000080E40000A0E40001A0E40001C0E40EF
:10316000004002400080024000C00240570D400075
:10317000690E40002DE9F0418AB004460D4616461E
:10318000984604A81F4B984704A920461E4B984711
:10319000636823F08F03636003A81C4B98470023E8
:1031A0008DF80D30B7B203AA39462046184B984720
:1031B00067664FF40073E36601A8164B984701A9B0
:1031C0002046154B98470123424631462046134C72
:1031D000A0476BB2002B0EDB114A8021D1545B0952
:1031E00005F01F05012202FA05F50E4A42F82350A8
:1031F0000AB0BDE8F08105F00F010B4A0A448021B6
:103200001176ECE7E5054000350640001506400064
:10321000A10540001F064000D105400035074000D1
:1032200000E400E000E100E0FCEC00E0F0B583B079
:1032300005460C46002301932A4B984213D02A4B93
:10324000984218D0294B98421DD0294B9D4222D03C
:10325000284B9D4227D0284B9D422ED0274B9D4284
:1032600035D003B0F0BD1F46254E21463846B04745
:103270000028FAD1E9E71F46214E21463846B047DB
:103280000028FAD1E4E71F461D4E21463846B047D4
:103290000028FAD1DFE71F46194E21463846B047CD
:1032A0000028FAD1DAE71E46164D01A93046A84794
:1032B0000028FAD1019B2370D3E71E46114D01A9C6
:1032C0003046A8470028FAD1019B2370C9E71E4663
:1032D0000C4D01A93046A8470028FAD1019B237064
:1032E000BFE700BF00080E40000A0E40001A0E4063
:1032F000001C0E40004002400080024000C002401E
:10330000690D40007F0E400008B50A46014602489C
:10331000024B9847FEE700BFB0954000654440006F
:1033200070474FF0800372B683F31188BFF36F8F3D
:10333000BFF34F8F62B6FEE7F8B504460E4615465A
:103340001F460698064B98473B462A46314620467C
:10335000044EB0473C2229462046034B9847F8BD0F
:10336000590C40004509400019084000F0B583B0F1
:1033700005460C461646089F0097124FB84731463F
:103380002846114B98472846104B984762B250097F
:10339000E4B204F01F0101238B400D4941F82030B5
:1033A000002A06DB099B5B01DBB20A498B5403B0A0
:1033B000F0BD04F00F04099B5A01D2B2064B1A5516
:1033C000F5E700BF650A4000070A40000B0A40000D
:1033D00000E100E000E400E014ED00E02DE9F04140
:1033E00082B00C204F4CA0470C20A0471020A047D3
:1033F0001020A0470A20A0470C20A0471020A0477B
:103400001020A0471020A0471020A0471020A04760
:10341000454E08234FF480724FF040513046434DE3
:10342000A84708234FF400524FF040513046A847B8
:103430003F4C08234FF080424FF040512046A847B0
:1034400008234FF400624FF040512046A84708235C
:1034500040224FF040513748A84708234FF400223C
:103460004FF040513046A8471025009509234FF4EE
:1034700080124FF020512046DFF8D480C047042747
:1034800001972D4B009340234FF48012294620468C
:103490002A4EB047009509234FF400124FF02051F7
:1034A0002046C0470197264B009340234FF400125B
:1034B00029462046B047009509234FF480024FF07B
:1034C00020512046C04701971E4B009340234FF4E4
:1034D000800229462046B047009509234FF000722C
:1034E0004FF020512046C0470197174B00934023CF
:1034F0004FF0007229462046B047009509234FF04F
:1035000080624FF020512046C04701970F4B009337
:1035100040234FF0806229462046B04702B0BDE804
:10352000F08100BF590C400000120E4045094000D8
:1035300000140E40000E0E409D2D40006D334000E3
:10354000052E4000692E4000CD2E4000312F400056
:103550003933400038B505460C460846034B9847BA
:10356000024621462846024B984738BD0147400095
:103570001D0240002DE9F04782B08946C3B1804664
:103580001D46561E1CD000240E4FDFF83CA005E05F
:10359000013D0120D04765B1B4420AD201A940469D
:1035A000B8470028F4D1019B09F804300134F2E750
:1035B0000024002309F80430204602B0BDE8F0875B
:1035C0003446F6E77F0E40003D23400070B50446C8
:1035D0000D4616461946044B9847049B3246294629
:1035E0002046024CA04770BD55354000753540005F
:1035F000F0B587B00D20174CA0474FF41653009339
:10360000C02301934FF400630293002503950495B2
:103610000D20A047104C114A69462046104B984790
:103620002046104FB84720460F4EB0472046B847B7
:103630002046B0470D4E2B4601224FF0C051304678
:103640000B4CA0472B4602224FF0C0513046A047FA
:1036500007B0F0BD590C40000040024080D1F00896
:10366000010E4000550E40005B0E400000100E4061
:10367000450940002DE9F043A3B0DFF890801E4ECD
:103680004FF06409CDF8009043464FF47A7202A9D6
:1036900030461A4DA8474FF4FA70194CA047CDF8A0
:1036A000009043464FF47A7202A93046A8474FF47F
:1036B000FA70A0474FF47A770097124B3A4602A966
:1036C0003046A8474FF4FA70A047CDF80090434623
:1036D0003A4602A93046A8474FF4FA70A04700972F
:1036E000094B3A4602A93046A8474FF4FA70A04762
:1036F00023B0BDE8F08300BF00400240CD3540005C
:103700003D234000DC944000F0944000D8944000F9
:1037100000B583B001210B480B4B98470190019BEA
:103720000A492020486102220A60094B58611A6048
:10373000402048610A604FF4807159611A6003B0FB
:103740005DF804FB00C00040DF0C40000040064074
:1037500000C003402DE9F04385B006460C461746ED
:10376000984608461C4B98471C4D009502AB03AA8F
:1037700029464046DFF88090C847029A42F48042CA
:1037800039463046164B9847039AB5FBF2F2B2FB26
:10379000F8F239463046134B984763B2002B13DBDF
:1037A000114A8021D1545B0904F01F04012202FA5E
:1037B00004F40E4A42F823401022394630460C4B9E
:1037C000984705B0BDE8F08304F00F01094A0A44A8
:1037D00080211176E7E700BF590C400000A3E111FA
:1037E000AD0C4000CF0C400000E400E000E100E040
:1037F000D70C4000FCEC00E0E70C40002DE98848C5
:103800002248234CA0472348A047234C0A230122E7
:1038100018212046214DA84701212046204B9847DA
:10382000DFF890B0194D4FF00A095B4605222821B8
:103830002846DFF88480C0474FF0200AC5F814A05E
:1038400002272F604846174EB047124C164B0522F0
:103850001D212046C047C4F814A027604846B04741
:10386000124B062228212846C04740236B612F6057
:103870004846B0470E4B08221D212046C0474FF452
:103880008073636127604846B047CEE7004006403A
:10389000B507400000C0034000C00040553740005D
:1038A000C70C40003D23400031304000F92F40005C
:1038B000C12F400069304000753140002DE9F041D2
:1038C00082B002AB03E903001746DDF800809DF8E3
:1038D00004101E481E4B98471C4D1E4C1E4E01E006
:1038E0000A20B0472846A0470028F9D04FEA1821FF
:1038F0001648174B9847154D164C174E01E00A20F5
:10390000B0472846A0470028F9D05FFA88F10F4851
:103910000F4B98470D4D0F4C0F4E01E00A20B0475A
:103920002846A0470028F9D039460848084B984750
:10393000064D084C084E01E00A20B0472846A04733
:103940000028F9D002B0BDE8F08100BF004002407D
:10395000690E4000610E40003D2340002DE9F0411A
:103960000446884617461E481E4B984721461E4867
:103970001E4B98471C4D1E4C1E4E01E00A20B047BE
:103980002846A0470028F9D000211748174B984730
:10399000154D174C174E01E00A20B0472846A047A6
:1039A0000028F9D041461048104B98470E4D104C56
:1039B000104E01E00A20B0472846A0470028F9D061
:1039C00039460948094B9847074D094C094E01E013
:1039D0000A20B0472846A0470028F9D0BDE8F0816A
:1039E000509540006544400000400240690E400090
:1039F000610E40003D2340002DE9F04F85B04B485B
:103A00004B4CA0474B48A0474B4B98474B4B9847D4
:103A10004B4B98474FF400214A484B4B984700279F
:103A2000BA46B946B846494CDFF83CB1404D51E082
:103A3000019B08F5FA72934203D2A8F5FA729342F9
:103A40005ED8582201AB93E80300414B9847DDF85C
:103A500004804DE0019B09F5FA72934203D2A9F567
:103A6000FA72934250D8582201AB93E80300384BC6
:103A70009847DDF804903FE0019B0AF5FA72934203
:103A800003D2AAF5FA7293423ED8582201AB93E8CA
:103A900003002F4B9847DDF804A031E0019B07F5A8
:103AA000FA72934203D2A7F5FA7293422CD85822A5
:103AB00001AB93E80300264B9847019F24E058464A
:103AC000A8470021234B1868234EB0470021234B01
:103AD0001868B0472378002BF1D10A2201A91F48AA
:103AE00000681F4EB04778B19DF80830682B9FD012
:103AF0009DF80830792BADD09DF80830692BBBD0EC
:103B00009DF808307A2BC9D00023012203A911485F
:103B10000068134EB0470028DCD058229DF80D10E5
:103B20009DF80C000F4B9847D4E700BF5895400014
:103B30002945400070954000F13540007536400041
:103B4000DD33400000120E4033084000900B40204F
:103B5000BD3840009C0C402021174000A00C4020A4
:103B6000151B40005D3940008495400000B58BB0C6
:103B7000324B9847324B9847324D334B1D60334A96
:103B8000334B1A60334A344B1A604FF4E1330493D9
:103B9000C02305934FF40063069300240794089410
:103BA0000E202E4B98472E4A04A928462D4B9847A5
:103BB00028462D4B984728462C4B98472C4E336867
:103BC000214698682B4DA847336821465868A84776
:103BD000336821469868A847224608210120264BD1
:103BE0009847264B186000B3002208216420224B1E
:103BF0009847234B1860E0B1002403940294019489
:103C0000009423464FF420521E491F481F4DA847D9
:103C1000039402940194009423464FF420521C49CB
:103C20001C48A8471C4B9847FEE71C481C4B98476C
:103C3000DAE71C481C4B9847DEE700BFAD014000A7
:103C40008103400000800240D80B4020A13040009A
:103C5000D40B40202D324000D00B4020590C4000A6
:103C600080D1F008010E4000550E40005B0E400070
:103C70000C0040205D454000B5174000A00C4020DE
:103C80009C0C402044954000F9394000F51D40004F
:103C900048954000FD37400029204000FC9440003A
:103CA00065444000209540002945400070B50F4E06
:103CB0000F4D761BB61018BF002405D0013455F8FF
:103CC000043B9847A642F9D10A4E0B4D761B05F0EE
:103CD000C3FDB61018BF002406D0013455F8043BCC
:103CE0009847A642F9D170BD70BD00BF64984000EE
:103CF000649840006C98400064984000024B014674
:103D0000186800F00BB800BF0C004020024B0146C1
:103D1000186803F01DBA00BF0C0040202DE9F04FD9
:103D200001F10B06162E83B0054640F29E8036F058
:103D3000070600F1BD80B14200F2BA8000F086FBB8
:103D4000B6F5FC7FC0F09382730A00F0B880042BB4
:103D500000F27981B30903F1390003F1380EC30091
:103D6000BF4F3B44A3F108015C68A14206D10CE0BF
:103D7000002A80F2AA80E468A14206D0636823F09A
:103D800003039A1B0F2AF3DD70463C69DFF8E4E277
:103D9000744500F0AB81636823F003039A1B0F2A7C
:103DA00000F39081002AC7F814E0C7F810E080F211
:103DB0009D80B3F5007F80F06181DB0803F1010C89
:103DC00099107A6857F83C80C4F8088001238B402A
:103DD00007EBCC0113430839E1607B6047F83C40B6
:103DE000C8F80C408210012494409C4200F28B8061
:103DF0001C4206D120F0030064001C4200F10400C4
:103E0000FAD007EBC009CC468046DCF80C309C4564
:103E100007D16DE1002A80F27B81DB689C4500F0D0
:103E20006781596821F003018A1B0F2AF2DDD3F85C
:103E30000CC0D3F8088000939C19284646F0010670
:103E400042F001055E60C8F80CC0CCF808807C61C7
:103E50003C61C4F80CE0C4F808E065605A5000F01A
:103E6000FBFA009B03F108041EE0102920D800F0A3
:103E7000EDFA102618230220794F3B44A3F10802E3
:103E80005C68944200F03D816368E168A66823F0B5
:103E90000303234428465A68F16042F001028E6011
:103EA0005A6000F0D9FA0834204603B0BDE8F08F1C
:103EB00000240C2320462B6003B0BDE8F08F402087
:103EC0004FF400734FF03F0E4AE72344E1685A680D
:103ED000A66842F00102F16028468E605A6000F048
:103EE000BBFA0834204603B0BDE8F08F23442846CF
:103EF0005A6842F001025A6000F0AEFA08342046D7
:103F000003B0BDE8F08FBC68636823F00308B045D8
:103F100004D3A8EB06030F2B00F38580DFF858913C
:103F2000504BD9F800201B680132334404EB080AD7
:103F300000F0558103F580530F3323F47F6B2BF092
:103F40000F0B5946284600F0F7FA411C024600F0D4
:103F5000FC80824500F2F780434B19685944196090
:103F600000F04D81D9F8000001301BBFA2EB0A0A16
:103F70005144C9F80020196012F0070100F01581C2
:103F8000C1F10800C1F580510244083102EB0B0970
:103F9000C9F30B09A1EB0909494628460193009290
:103FA00000F0CAFA431C9DE80C0000F04381801A1F
:103FB000484440F001001968BA604944BC4250606E
:103FC000196017D0B8F10F0F40F2FB806068A8F1BC
:103FD0000C0222F0070204EB020E00F001004FF089
:103FE000050C10430F2A6060CEF804C0CEF808C05C
:103FF00000F217811D4BBC681A68914288BF196096
:104000001B4B1A689142626888BF196022F0030254
:104010009642A2EB060301D80F2B04DC284600F0E1
:104020001BFA002440E7A21943F0010346F0010601
:1040300066602846BA60536000F00EFA08342046E5
:1040400003B0BDE8F08F142B71D9542B00F2A3807C
:10405000330B03F16F0003F16E0EC30080E600BF67
:1040600038044020C40B4020940B4020BC0B40205F
:10407000C00B402040044020400840205A0A042A37
:104080005BD9142A00F2AE8002F15C01C9005B32F8
:1040900007EB010C7958ACF1080C8C4500F08880D6
:1040A0004A6822F00302934273D289688C45F7D1A3
:1040B000DCF80C207B68E260C4F808C09460CCF89F
:1040C0000C408FE6A11946F0010C42F00106C4F83D
:1040D00004C0284679613961C1F80CE0C1F808E0F4
:1040E0004E60E25000F0B8F90834DDE67B6879E60E
:1040F00008F1010818F0030F0CF1080C7FF485AEED
:104100002DE0DC68A34208BF02303FF43EAEBBE6C0
:1041100019441C464A68DB6854F8086F42F00102F3
:104120004A602846F3609E6000F096F9BCE603F111
:104130005C0003F15B0EC30012E69A0902F139013B
:10414000C9003832A4E7BC4254D0BC68626822F08F
:1041500003025DE759F80839994540F0868010F070
:10416000030F00F1FF30F5D17B6823EA04037B6085
:1041700064009C423FF6C7AE002C3FF4C4AE1C4224
:1041800040467FF43EAE64001C4200F10400FAD0C9
:1041900037E68C468CE7B3F5AA7F15D8F30B03F10D
:1041A000780003F1770EC300DAE54FF48051EDE6B5
:1041B0007B689210012101FA02F213437B60624690
:1041C00079E70123536029E740F25452934222D801
:1041D000B30C03F17D0003F17C0EC300C0E503F1D5
:1041E000100BAEE6542A29D81A0B02F16F01C90050
:1041F0006E324DE7204B196859441960B2E6CAF394
:104200000B0000287FF4AEAE08EB0B03BA6843F056
:1042100001035360EEE67F204FF47E734FF07E0E75
:104220009EE504F108012846009302F091FF009BEF
:104230001968DFE601204FF00009BCE6B2F5AA7F5D
:1042400005D8DA0B02F17801C900773220E740F295
:1042500054518A4205D89A0C02F17D01C9007C3282
:1042600016E74FF47E717E2212E77B6880E7F00844
:1042700006F1080300E600BF940B4020844641EAA3
:10428000000313F003036DD1403A41D351F8043BCE
:1042900040F8043B51F8043B40F8043B51F8043B20
:1042A00040F8043B51F8043B40F8043B51F8043B10
:1042B00040F8043B51F8043B40F8043B51F8043B00
:1042C00040F8043B51F8043B40F8043B51F8043BF0
:1042D00040F8043B51F8043B40F8043B51F8043BE0
:1042E00040F8043B51F8043B40F8043B51F8043BD0
:1042F00040F8043B51F8043B40F8043B51F8043BC0
:1043000040F8043B51F8043B40F8043B403ABDD22E
:10431000303211D351F8043B40F8043B51F8043BD0
:1043200040F8043B51F8043B40F8043B51F8043B8F
:1043300040F8043B103AEDD20C3205D351F8043B5F
:1043400040F8043B043AF9D2043208D0D2071CBF2B
:1043500011F8013B00F8013B01D30B880380604654
:10436000704700BF082A13D38B078DD010F00303CA
:104370008AD0C3F10403D21ADB071CBF11F8013B3A
:1043800000F8013B80D331F8023B20F8023B7BE789
:10439000043AD9D3013A11F8013B00F8013BF9D2B4
:1043A0000B7803704B7843708B788370604670474E
:1043B00070B4860746D0541E002A41D0CAB20346C4
:1043C00002E014F1FF343BD303F8012B9D07F8D131
:1043D000032C2ED9CDB245EA05250F2C45EA05451B
:1043E00019D903F110022646103E0F2E42F8105C38
:1043F00042F80C5C42F8085C42F8045C02F11002DE
:10440000F2D8A4F1100222F00F0204F00F041032CF
:10441000032C13440DD91E462246043A032A46F8BB
:10442000045BFAD8221F22F003020432134404F082
:1044300003042CB1C9B21C4403F8011B9C42FBD1FC
:1044400070BC704714460346C2E700BF014803F042
:1044500019B900BFB40C4020014803F015B900BFE2
:10446000B40C40200FB400B5074983B004AB086812
:1044700053F8042B8168019300F0B0F903B05DF8A4
:1044800004EB04B0704700BF0C004020F0B50546B7
:1044900089B008460C4600F033F9AB6B214F049409
:1044A0000126441C04A9022203940590AC680697D7
:1044B00007960191029253B3636E13F0010FB4F9A2
:1044C0000C309AB201D1900525D5910406D4626EC4
:1044D00043F4005322F40052A3816266284601AAE5
:1044E000214602F01BFF636E00280CBF0A254FF027
:1044F000FF35DA0702D4A3899B0502D5284609B007
:10450000F0BDA06D03F0C0F8284609B0F0BD284604
:1045100002F07CFDD0E7A06D03F0B4F8B4F90C30E4
:104520009AB2D2E7CC954000024B01461868FFF7DB
:10453000ADBF00BF0C00402038B5074C0023054636
:1045400008462360FCF7D8FD431C00D038BD236823
:10455000002BFBD02B6038BDC80C402000290CBFBD
:10456000022200224FF4806300F000B82DE9F043EE
:10457000614C256883B004460F4690461E4615B12F
:10458000AB6B002B64D0B8F1020F06D0B8F1010F6D
:1045900000F29F80002EC0F29C80636ED80734D555
:1045A0002146284602F0DAFC216B41B104F14003B8
:1045B000994202D0284602F0CBFD00232363B4F9D0
:1045C0000C300022A26162601A063AD423F44A63D6
:1045D00023F00303B8F1020FA3811DD001AB6A469B
:1045E0002146284603F052F8A3891843A081002EE3
:1045F00032D1009E3046FFF781FB074600286BD082
:10460000A38943F08003A38128E0A3899905C7D437
:10461000A06D03F037F8C3E70025616E002604F1B2
:10462000430243F002030120A660CE07A38122606B
:104630002261606101D498053ED5284603B0BDE8EB
:10464000F0832169284602F083FDB4F90C30BDE700
:10465000284602F0DBFC96E7002FCBD0AB6B002B9B
:1046600033D0009BB4F90C2027609E421CBF42F45B
:104670000062A281B8F1010F04BF42F00102A281E1
:1046800092B212F00803276166610ED0D1071AD5E5
:10469000656E7642002315F00105A661A36009D07E
:1046A0000025284603B0BDE8F083A360656E15F0D1
:1046B0000105F5D19305C0D4A06D02F0E5FF2846B1
:1046C00003B0BDE8F083A660F0E7284602F09EFC48
:1046D000C7E74FF0FF35B0E7DDF80090B14504D0F3
:1046E0004846FFF70BFB074620B9B4F90C304FF0F2
:1046F000FF3592E74E4683E70C00402000000000A3
:1047000090F800F06DE9024520F007016FF0000C11
:1047100010F0070491F820F040F049804FF00004B9
:104720006FF00700D1E9002391F840F000F1080094
:1047300082FA4CF2A4FA8CF283FA4CF3A2FA8CF3CC
:104740004BBBD1E9022382FA4CF200F10800A4FA33
:104750008CF283FA4CF3A2FA8CF3E3B9D1E9042387
:1047600082FA4CF200F10800A4FA8CF283FA4CF3BE
:10477000A2FA8CF37BB9D1E9062301F1200182FA78
:104780004CF200F10800A4FA8CF283FA4CF3A2FA7E
:104790008CF3002BC6D0002A04BF04301A4612BA8C
:1047A000B2FA82F2FDE8024500EBD2007047D1E98F
:1047B000002304F00305C4F100004FEAC50514F01E
:1047C000040F91F840F00CFA05F562EA05021CBFEF
:1047D00063EA050362464FF00004A9E72DE9F04FB4
:1047E000C1B01D468A4691460446089002F038FF43
:1047F000036815931846FFF783FF0E9514901CB1BC
:10480000A36B002B00F05F82DAF86430BAF90C2059
:1048100013F0010F93B202D1990540F175829F0404
:104820000AD4DAF8641042F4005321F40051AAF8D3
:104830000C30CAF864109BB21E0740F12382DAF8EC
:104840001020002A00F01E8203F01A020A2A00F04B
:104850003E820023184611931393129325932493B9
:10486000189319930B9330AB239398461690179097
:10487000CDF828A099F800304C46EBB1252B02D199
:104880001AE0252B03D014F8013F002BF9D1A4EB3B
:1048900009058DB1249B259AC8F8009001332A445C
:1048A000072BC8F804502592249300F3018208F1E5
:1048B00008080B9B2B440B932378002B00F0F0830C
:1048C00000231A468DF86F3019460C939B46667884
:1048D0004FF0FF3304F10109099309F10109A6F131
:1048E0002003582B00F2BF83DFE813F0E002BD0382
:1048F000BD034F03BD03BD03BD03BD03BD03BD0326
:1049000054030803BD031A02E802BD0303033A037C
:104910003A033A033A033A033A033A033A033A03AF
:10492000BD03BD03BD03BD03BD03BD03BD03BD0387
:10493000BD03BD0349036203BD036203BD03BD03A1
:10494000BD03BD03A203BD03BD036F00BD03BD03D3
:10495000BD03BD03BD035900BD03BD031E03BD035D
:10496000BD03BD03BD03BD03BD03BD03BD03BD0347
:10497000BD0324037302620362036203B70273027E
:10498000BD03BD03BC02BD03C90271000D03470294
:10499000BD035202BD035B00BD03BD031F024BF00C
:1049A000100B1BF0200F40F053830E9A1BF0100FDA
:1049B000134640F0B4851BF0400F00F0B08514881A
:1049C0000432002501230E9214E04BF0100B1BF073
:1049D000200340F032831BF0100240F089851BF069
:1049E000400300F085850E9913460A4604320C8870
:1049F0000E9200254FF0000A8DF86FA009994A1C0D
:104A000000F00B822BF08002069254EA050240F07F
:104A10000A82002940F06F84002B40F02D851BF0A6
:104A200001030D9300F0688640AF302307F8413D45
:104A3000099B0D9A9342B8BF134607930023109326
:104A4000BAF1000F02D0079B01330793069B13F0C6
:104A500002030F9302D0079B02330793069B13F0C8
:104A6000840540F01B830C9B079AA3EB020BBBF160
:104A7000000F40F31383BBF1100F2599249A28DD12
:104A800043461024A846DDF820A00A9D06E0ABF1BD
:104A9000100BBBF1100F03F1080318DD0132B94808
:104AA00024921031072A259183E81100EFDD23AA13
:104AB0002946504603F03CFC002840F06A83ABF1E5
:104AC000100BBBF1100F2599249A30ABE6DC45465C
:104AD00098460132AB4B24920BEB0104072A259434
:104AE00088E8080800F3CD849DF86FA008F1080855
:104AF000BAF1000F0ED0249B013301340DF16F0188
:104B00000122072B2594249388E8060000F30A84E9
:104B100008F108080F9B6BB1249B013302341CA9D8
:104B20000222072B2594249388E8060000F30684CC
:104B300008F10808802D00F02E83099B0D9AA3EB45
:104B4000020ABAF1000F3BDDBAF1100F249B8E4D23
:104B50002BDD42462146B0464FF0100B2E46089CF6
:104B60000A9D06E0AAF1100ABAF1100F02F108023C
:104B700017DD01331031072B2591249382E840087B
:104B8000F0DD23AA2946204603F0D2FB002840F09E
:104B90000083AAF1100ABAF1100F2599249B30AABC
:104BA000E7DC35460C464646904601335444072B15
:104BB0002594249388E8200400F3A98308F10808C9
:104BC000069BDB0500F18582249B0D99C8F80070D7
:104BD00001330C44072B2594C8F80410249300F3E8
:104BE000758308F10808069B59073BD50C9B079A6B
:104BF0009D1A002D36DD102D249B21DD1026089FE7
:104C0000DDF828A004E0103D102D08F1080817DD9C
:104C100001335C4A24931034072B259488E8440020
:104C2000F1DD23AA5146384603F082FB002840F00C
:104C30003F82103D102D259C249B0DF1C008E7DC20
:104C40000133504A24932C44072B259488E82400F0
:104C500008DD23AA0A99089803F06AFB002840F0AF
:104C60004783259C0B9B0C9A07998A42ACBF9B18E3
:104C70005B180B93002C40F03383002324930DF139
:104C8000C008F7E55146089801F096F8002838D09A
:104C9000DAF86430DD0704D4BAF80C309C0540F132
:104CA000CA854FF0FF330B930B9841B0BDE8F08FEE
:104CB00023AA0A99089803F03BFB002840F01883C8
:104CC0000DF1C008F5E5089802F0A0F99CE5BAF9E5
:104CD0000E20002AFFF6BDADDAF86420D00705D417
:104CE000990503D4DAF8580002F0CEFC2B464A4668
:104CF0005146089801F01EF80B900B9841B0BDE8A2
:104D0000F08FBAF80C309FE5DAF8580002F0BAFCE0
:104D1000BAF90C2093B282E50C980E9340420C90A5
:104D20004BF0040B99F80060D7E5002A40F0DF87CC
:104D3000164B18931BF0200F40F0B9840E9A1BF00D
:104D4000100F134640F0DC831BF0400F00F0D883B7
:104D5000043314880E9300251BF0010F00F022830A
:104D600054EA050300F01E8330238DF870308DF86F
:104D700071604BF0020B02233CE64BF0200B99F8DC
:104D80000060AAE51496400024964000F495400087
:104D90000E9A176800248DF86F40151D002F00F043
:104DA0004E86099A531C00F0CC852146384602F005
:104DB000E7FC002800F09786C31B0D9309940E951D
:104DC000CDF818B023EAE373079310949DF86FA011
:104DD00036E6002A40F096871BF0200F40F05A84F8
:104DE0001BF0100F40F0A2831BF0400F00F09E83D9
:104DF0000E99B1F900400431E51722462B460E9179
:104E0000002A73F10003C0F2878409999DF86FA00E
:104E10004A1C4FF001037FF4F5AD54EA050200F09F
:104E20006C82CDF818B0012B00F00883022B40F003
:104E30009582189830AF230904F00F0143EA0573F7
:104E40002A091C461546435C07F8013D54EA050350
:104E5000F1D130ABDB1B0D93EAE54BF0400B99F839
:104E600000603AE599F800606C2E03BF99F8016084
:104E70004BF0200B09F101094BF0100B2DE5002A36
:104E800040F04C871BF0200F40F03F851BF0100FC7
:104E900040F0FC801BF0400F00F0F8800E9A136881
:104EA00004320E92BDF82C201A80E3E499F80060D9
:104EB00000297FF412AD012220210EE599F800604F
:104EC0002A2E09F1010000F0F186A6F13003092B2A
:104ED000814698BF002000F23D8619F8016B00EB77
:104EE000800003EB4000A6F13003092BF5D90990AF
:104EF000F5E44BF0800B99F80060EEE499F800605F
:104F000001222B21E9E40E9AAE4B146818937826FF
:104F1000302304328DF870304BF0020B0E920025D6
:104F20008DF87160022365E5002A40F0E486A64B07
:104F30001893FFE60E99CDF818B00A688DF89820FE
:104F400000230A469A468DF86F30043201230793F6
:104F5000CDF824A0CDF840A00E920D9326AF75E5B4
:104F6000A6F13003002019F8016B00EB800003EB81
:104F70004000A6F13003092BF5D90C90AFE4002ACC
:104F800040F0C8864BF0100B26E74BF0010B99F868
:104F90000060A2E40E9C23680C9318460028234668
:104FA00003F10403FFF6B8AE0E9399F8006094E4A1
:104FB000002A40F0B7860E9D073525F0070303F160
:104FC00008020E921A6813925B681293129B139D4B
:104FD00023F00044284621464FF0FF327B4B04F07B
:104FE000A9F8002840F0A283284621464FF0FF325E
:104FF000764B04F081F8002840F09883169A1398B5
:10500000179B129904F06EF8002840F035849DF843
:105010006FA06F4F6F4B032200212BF0800007928F
:1050200009910690472ED8BF1F460D92109107E5B3
:105030004BF0080B99F800604FE40E9D073525F002
:10504000070303F10802D3E900450E920023D1E4DF
:105050000E9D073525F0070303F10802D3E900454B
:105060000E920123C6E4002A40F05086C6B1002308
:1050700001229A4607928DF89860CDF818B08DF805
:105080006F30099310930D9226AFDFE40E9A1368E8
:1050900004320E920B9A1A60FFF7ECBB259C27E5B1
:1050A000259BDDF828A0002B40F094850023249355
:1050B000DAF8643013F0010FBAF80C3002D19A0517
:1050C00040F149825B063FF5ECAD0B9841B0BDE87D
:1050D000F08F652E40F3B280169A1398179B1299A1
:1050E00003F0F6FF002800F06081249B3A4AC8F8DC
:1050F0000020013301340122072B25942493C8F8A2
:10510000042000F3BF8308F108081D9B119A259C19
:10511000934203DB069BDF077FF565AD249B149963
:10512000159AC8F8002001330C44072BC8F8041066
:105130002594249300F3F88308F10808119B5E1E60
:10514000002E7FF750AD102E249B244D40F3DD81BF
:105150001027DDF820A0DDF828B005E008F10808E8
:10516000103E102E40F3D18101331034072B2594CB
:10517000249388E8A000F1DD23AA5946504603F0A5
:10518000D7F8002840F0CD83259C249B0DF1C00862
:10519000E6E7AA468CE70C9B079AA3EB020ABAF152
:1051A000000F7FF7CAACBAF1100F249B0B4D39DD0D
:1051B00042462146B0464FF0100B2E46089C0A9DF1
:1051C00015E000BFF4954000E0954000FFFFEF7F41
:1051D000D4954000D09540001096400024964000A1
:1051E000AAF1100ABAF1100F02F1080216DD01331C
:1051F0001031072B2591249382E84008F0DD23AA83
:105200002946204603F094F80028C2D1AAF1100ADA
:10521000BAF1100F2599249B30AAE8DC35460C46DC
:105220004646904601335444072B2594249388E83E
:10523000200400F3648208F108087EE4119B249E98
:10524000012B40F3FD81013601340123072E259403
:105250002496C8F80070C8F8043000F30E8208F1F4
:105260000808149A159BC8F8003001361444072E1C
:1052700025942496C8F8042000F32E8208F108082B
:10528000179B169A1398129903F022FF119B00287E
:1052900040F00681013B013601371C44072E24965D
:1052A0002594C8F80070C8F8043000F3D98108F1DB
:1052B0000808199AC8F80420013614441FAB072EB9
:1052C00025942496C8F800307FF78BAC23AA0A995E
:1052D000089803F02DF858B9259C0DF1C00882E418
:1052E00023AA0A99089803F023F800283FF4C5ACD4
:1052F000DDF828A0DCE6DDF818B0012B00F02181F4
:10530000022B27D1CDF818B00024002591E523AA5F
:105310000A99089803F00CF80028E9D1259C0DF1B2
:10532000C0084DE423AA0A99089803F001F8002860
:10533000DED1259C0DF1C008FFF7ECBB23AA0A992A
:10534000089802F0F5FF0028D2D1259C0DF1C00885
:10535000FFF7F0BBCDF818B00024002530A900E01D
:105360003946E20842EA4572E80804F007030546B8
:105370001446303354EA050201F8013C01F1FF37CD
:10538000EED1069AD2077FF564AD302B3FF461ADC4
:105390003023023907F8013C30AB5B1A0D930F46FE
:1053A000FFF746BB0223FFF725BB1D99002940F3F9
:1053B0007482109B119A9342A8BF1346002B1E467D
:1053C0000DDD249BC8F8007001333444072B25946D
:1053D000C8F80460249300F3248308F10808109BA4
:1053E000002EA8BF9B1B002B1E4640F3D080102E22
:1053F000249BC04D40F3B78022464FF0100ADDF8E1
:1054000020B00A9C05E008F10808103E102E40F379
:10541000A98001331032072B2592249388E82004B9
:10542000F1DD23AA2146584602F082FF002840F011
:105430002483259A249B0DF1C008E6E7002D08BFC0
:105440000A2C7CD330AF204629460A22002303F0E1
:10545000AFFE303207F8012D2046294600230A22EC
:1054600003F0A6FE04460D4654EA0503EBD130AB2B
:10547000DB1B0D93FFF7DCBA099B0D9330AFFFF7F1
:10548000D7BA23AA0A99089802F052FF00287FF49D
:105490002FAF9DF86FA0259C0DF1C008FFF728BB2A
:1054A0005F1E002F7FF705AF102F924D40F30A814A
:1054B0004FF0100ADDF820B005E008F10808103FB1
:1054C000102F40F3FF8001361034072E25942496C8
:1054D00088E82004F1DD23AA0A99584602F028FF43
:1054E00000287FF405AF259C249E0DF1C008E6E757
:1054F0000E990A4604320C680E920025FFF77ABA1C
:105500001C6804330E93002526E401333444072B32
:105510002594249388E860007FF763ABD6E60432D5
:105520001C680E9201230025FFF764BA0E9A1468D6
:1055300013460433E5170E9322462B4660E4DDF84C
:1055400018B0CDF818B040AF3034012307F8414D02
:105550000D93FFF76DBADAF8580002F095F8BAF833
:105560000C30AFE5144601333444072B25942493C3
:1055700088E8600040F36D8123AA0A99089802F038
:10558000D7FE00287FF4B4AE259C0DF1C0081D9B0A
:10559000119A934280F25881249A14981599C8F868
:1055A000001001320444072A2594C8F8040024920C
:1055B00000F3528108F10808119A1099D31A561A6B
:1055C0009E42A8BF1E46002E0EDD249AC8F8046035
:1055D00001320F443444072AC8F8007025942492FD
:1055E00000F33C8208F10808002EACBF9E1B1E464B
:1055F000002E7FF7F8AA102E249B3E4D85DD102744
:10560000DDF820A0DDF828B005E008F10808103E1C
:10561000102E7FF77AAF01331034072B2594249393
:1056200088E8A000F1DD23AA5946504602F080FE2A
:10563000002840F07681259C249B0DF1C008E6E708
:10564000069BD8073FF5FFAD013601340123072E35
:1056500025942496C8F80070C8F804307FF727AE68
:1056600023AA0A99089802F063FE00287FF440AE4E
:10567000259C249E0DF1C0081BE623AA0A990898D0
:1056800002F056FE00287FF433AE259C249E0DF1D7
:10569000C008E6E50E9D073525F00705D5E900238E
:1056A00005F108010E9114461D46FFF7A9BB0E9D9A
:1056B000073525F0070303F108020E92D3E90045F0
:1056C000FFF74ABB01363C44072E2594249688E810
:1056D000A0007FF7ECADC3E723AA0A99089802F06F
:1056E00027FE00287FF404AE259C249E0DF1C008FF
:1056F000C6E500BF2496400030AFFFF799B923AA52
:105700000A99089802F014FE00287FF4F1AD259C58
:105710000DF1C008FFF711BA4FF02D0A644265EB96
:1057200045058DF86FA00123FFF768B9139C224649
:105730002046129C2346214603F0FCFC002840F042
:105740008C82099B013326F020030D9300F0918099
:10575000472B04D1099B002B08BF012309934BF46D
:1057600080730693129BB3F1000A139B0793BBBF90
:10577000534603F1004A00232D23662E0F9300F0B9
:105780007F81462E00F0D4810D9B079A452B0CBFDC
:10579000099B099D21A81EA908BF5D1C04900391C7
:1057A0001DA802210290534601950091089800F02F
:1057B0000BFC672E074640F0AF811BF0010F00F095
:1057C00013827C19169A0798179B514603F080FCA8
:1057D000002840F03281219BA34206D230215A1C7E
:1057E00021921970219B9C42F9D8DB1B11930D9BD0
:1057F000472B00F0B980652E40F376821D9B1093F5
:10580000662E00F06281119B109A1946914200F3B6
:105810004F811BF0010F40F0098222EAE2730793E7
:105820000D9267260F9B002B40F0968009939DF800
:105830006FA0FFF705B9DAF8580001F025FF4FF027
:10584000FF330B93FFF730BA069AD5077FF5B4AE56
:10585000A2E608F108089AE623AA0A99089802F035
:1058600067FD00287FF444AD1D9B259C0DF1C00809
:10587000A2E60623099372E74FF02D0A8DF86FA078
:10588000FFF7C7BB23AA0A99089802F051FD002828
:105890007FF42EAD0DF1C00837E4249BB44AC8F85C
:1058A0000020013301340122072B25942493C8F8EA
:1058B000042000F3248108F1080829B9119B1BB9C1
:1058C000069BDE077FF58FA9249B1498159AC8F8CC
:1058D0000020013302462244072B2592C8F8040019
:1058E000249300F3698108F108080029C0F2368189
:1058F0001199C8F8007001338C18072B2594249354
:10590000C8F804107FF76DA9E0E40E9A0B991368AC
:10591000CD170846043229460E92C3E90001FEF76E
:10592000A9BFDA46FFF7C4BB23AA0A99089802F078
:10593000FFFC00287FF4DCAC259C0DF1C008FFF7CC
:10594000FDBB38460994FEF7DBFE0E950D90CDF8B1
:1059500018B00346FFF736BA4FF02D0A00238DF832
:105960006FA00993FFF76FB81D9B10931A4603337E
:1059700004DB099B19469142BFF645AF023E109BDE
:105980008DF87C60013B002B1D93BDBF109BC3F1C4
:1059900001032D222B22092B8DF87D2040F33E811F
:1059A0000DF18B042046734D00E0104685FB031279
:1059B000D917C1EBA20101EB8102A3EB4202303205
:1059C000092900F8012C0B4600F1FF32EDDC3033E1
:1059D0000238D9B2844202F8011C40F290810DF1E4
:1059E0007E00134601E013F8011B00F8011BA342DF
:1059F000F9D101339B1A0DF17E0213441FAA9B1AA1
:105A0000119A1993012A13440D9340F345810D9B7C
:105A1000149A13440D9323EAE3730793002310931E
:105A200000E723AA0A99089802F082FC00287FF474
:105A30005FAC259C0DF1C008D1E42346D5E6099B57
:105A40001097062B28BF06230997BA4607930E9591
:105A5000CDF818B00D93484FFEF7F2BF23AA0A996C
:105A6000089802F065FC00287FF442AC1D9B119A57
:105A7000259CD31A0DF1C008B6E5A246FFF718BB66
:105A800021A81EA9099D049003911DA8032102903D
:105A9000079A019553460091089800F095FA074639
:105AA00044193B78302B00F0CA801D9D2C4489E6B8
:105AB000149A119B1344109A0D93002A40F3E4802A
:105AC00023EAE37307936726ACE6002B40F3FB80E1
:105AD000099A002A40F0CE801BF0010F40F0CA80E6
